{
  "_format": "hh-sol-artifact-1",
  "contractName": "PoolPredictionMarket",
  "sourceName": "contracts/PoolPredictionMarket.sol",
  "abi": [
    {
      "inputs": [
        {
          "internalType": "string",
          "name": "_question",
          "type": "string"
        },
        {
          "internalType": "uint256",
          "name": "_expiry",
          "type": "uint256"
        },
        {
          "internalType": "address",
          "name": "_token",
          "type": "address"
        },
        {
          "internalType": "address",
          "name": "_oracle",
          "type": "address"
        },
        {
          "internalType": "uint16",
          "name": "_feeBps",
          "type": "uint16"
        }
      ],
      "stateMutability": "nonpayable",
      "type": "constructor"
    },
    {
      "inputs": [],
      "name": "AlreadyResolved",
      "type": "error"
    },
    {
      "inputs": [],
      "name": "AlreadyWithdrawn",
      "type": "error"
    },
    {
      "inputs": [],
      "name": "MarketExpired",
      "type": "error"
    },
    {
      "inputs": [],
      "name": "MarketNotExpired",
      "type": "error"
    },
    {
      "inputs": [],
      "name": "NotOracle",
      "type": "error"
    },
    {
      "inputs": [],
      "name": "NotResolved",
      "type": "error"
    },
    {
      "inputs": [],
      "name": "ZeroAmount",
      "type": "error"
    },
    {
      "anonymous": false,
      "inputs": [
        {
          "indexed": true,
          "internalType": "address",
          "name": "user",
          "type": "address"
        },
        {
          "indexed": false,
          "internalType": "bool",
          "name": "yesSide",
          "type": "bool"
        },
        {
          "indexed": false,
          "internalType": "uint256",
          "name": "amount",
          "type": "uint256"
        }
      ],
      "name": "Buy",
      "type": "event"
    },
    {
      "anonymous": false,
      "inputs": [
        {
          "indexed": false,
          "internalType": "bool",
          "name": "outcomeYes",
          "type": "bool"
        }
      ],
      "name": "Resolve",
      "type": "event"
    },
    {
      "anonymous": false,
      "inputs": [
        {
          "indexed": true,
          "internalType": "address",
          "name": "user",
          "type": "address"
        },
        {
          "indexed": false,
          "internalType": "uint256",
          "name": "payout",
          "type": "uint256"
        },
        {
          "indexed": false,
          "internalType": "uint256",
          "name": "fee",
          "type": "uint256"
        }
      ],
      "name": "Withdraw",
      "type": "event"
    },
    {
      "inputs": [
        {
          "internalType": "uint256",
          "name": "amount",
          "type": "uint256"
        }
      ],
      "name": "buyNo",
      "outputs": [],
      "stateMutability": "nonpayable",
      "type": "function"
    },
    {
      "inputs": [
        {
          "internalType": "uint256",
          "name": "amount",
          "type": "uint256"
        }
      ],
      "name": "buyYes",
      "outputs": [],
      "stateMutability": "nonpayable",
      "type": "function"
    },
    {
      "inputs": [],
      "name": "expiry",
      "outputs": [
        {
          "internalType": "uint256",
          "name": "",
          "type": "uint256"
        }
      ],
      "stateMutability": "view",
      "type": "function"
    },
    {
      "inputs": [],
      "name": "feeBps",
      "outputs": [
        {
          "internalType": "uint16",
          "name": "",
          "type": "uint16"
        }
      ],
      "stateMutability": "view",
      "type": "function"
    },
    {
      "inputs": [
        {
          "internalType": "address",
          "name": "",
          "type": "address"
        }
      ],
      "name": "noBalance",
      "outputs": [
        {
          "internalType": "uint256",
          "name": "",
          "type": "uint256"
        }
      ],
      "stateMutability": "view",
      "type": "function"
    },
    {
      "inputs": [],
      "name": "noTotal",
      "outputs": [
        {
          "internalType": "uint256",
          "name": "",
          "type": "uint256"
        }
      ],
      "stateMutability": "view",
      "type": "function"
    },
    {
      "inputs": [],
      "name": "oracle",
      "outputs": [
        {
          "internalType": "address",
          "name": "",
          "type": "address"
        }
      ],
      "stateMutability": "view",
      "type": "function"
    },
    {
      "inputs": [],
      "name": "outcomeYes",
      "outputs": [
        {
          "internalType": "bool",
          "name": "",
          "type": "bool"
        }
      ],
      "stateMutability": "view",
      "type": "function"
    },
    {
      "inputs": [],
      "name": "question",
      "outputs": [
        {
          "internalType": "string",
          "name": "",
          "type": "string"
        }
      ],
      "stateMutability": "view",
      "type": "function"
    },
    {
      "inputs": [
        {
          "internalType": "bool",
          "name": "_outcomeYes",
          "type": "bool"
        }
      ],
      "name": "resolve",
      "outputs": [],
      "stateMutability": "nonpayable",
      "type": "function"
    },
    {
      "inputs": [],
      "name": "resolved",
      "outputs": [
        {
          "internalType": "bool",
          "name": "",
          "type": "bool"
        }
      ],
      "stateMutability": "view",
      "type": "function"
    },
    {
      "inputs": [
        {
          "internalType": "address",
          "name": "newOracle",
          "type": "address"
        }
      ],
      "name": "setOracle",
      "outputs": [],
      "stateMutability": "nonpayable",
      "type": "function"
    },
    {
      "inputs": [],
      "name": "token",
      "outputs": [
        {
          "internalType": "contract IERC20",
          "name": "",
          "type": "address"
        }
      ],
      "stateMutability": "view",
      "type": "function"
    },
    {
      "inputs": [],
      "name": "withdraw",
      "outputs": [],
      "stateMutability": "nonpayable",
      "type": "function"
    },
    {
      "inputs": [
        {
          "internalType": "address",
          "name": "",
          "type": "address"
        }
      ],
      "name": "withdrawn",
      "outputs": [
        {
          "internalType": "bool",
          "name": "",
          "type": "bool"
        }
      ],
      "stateMutability": "view",
      "type": "function"
    },
    {
      "inputs": [
        {
          "internalType": "address",
          "name": "",
          "type": "address"
        }
      ],
      "name": "yesBalance",
      "outputs": [
        {
          "internalType": "uint256",
          "name": "",
          "type": "uint256"
        }
      ],
      "stateMutability": "view",
      "type": "function"
    },
    {
      "inputs": [],
      "name": "yesTotal",
      "outputs": [
        {
          "internalType": "uint256",
          "name": "",
          "type": "uint256"
        }
      ],
      "stateMutability": "view",
      "type": "function"
    }
  ],
  "bytecode": "0x60806040523480156200001157600080fd5b5060405162001fd938038062001fd983398181016040528101906200003791906200049c565b600073ffffffffffffffffffffffffffffffffffffffff168373ffffffffffffffffffffffffffffffffffffffff1603620000a9576040517f08c379a0000000000000000000000000000000000000000000000000000000008152600401620000a090620005a4565b60405180910390fd5b600073ffffffffffffffffffffffffffffffffffffffff168273ffffffffffffffffffffffffffffffffffffffff16036200011b576040517f08c379a0000000000000000000000000000000000000000000000000000000008152600401620001129062000616565b60405180910390fd5b6103e88161ffff16111562000167576040517f08c379a00000000000000000000000000000000000000000000000000000000081526004016200015e9062000688565b60405180910390fd5b8460009081620001789190620008eb565b508360018190555082600260006101000a81548173ffffffffffffffffffffffffffffffffffffffff021916908373ffffffffffffffffffffffffffffffffffffffff16021790555081600360006101000a81548173ffffffffffffffffffffffffffffffffffffffff021916908373ffffffffffffffffffffffffffffffffffffffff16021790555080600360146101000a81548161ffff021916908361ffff1602179055505050505050620009d2565b6000604051905090565b600080fd5b600080fd5b600080fd5b600080fd5b6000601f19601f8301169050919050565b7f4e487b7100000000000000000000000000000000000000000000000000000000600052604160045260246000fd5b620002938262000248565b810181811067ffffffffffffffff82111715620002b557620002b462000259565b5b80604052505050565b6000620002ca6200022a565b9050620002d8828262000288565b919050565b600067ffffffffffffffff821115620002fb57620002fa62000259565b5b620003068262000248565b9050602081019050919050565b60005b838110156200033357808201518184015260208101905062000316565b60008484015250505050565b6000620003566200035084620002dd565b620002be565b90508281526020810184848401111562000375576200037462000243565b5b6200038284828562000313565b509392505050565b600082601f830112620003a257620003a16200023e565b5b8151620003b48482602086016200033f565b91505092915050565b6000819050919050565b620003d281620003bd565b8114620003de57600080fd5b50565b600081519050620003f281620003c7565b92915050565b600073ffffffffffffffffffffffffffffffffffffffff82169050919050565b60006200042582620003f8565b9050919050565b620004378162000418565b81146200044357600080fd5b50565b60008151905062000457816200042c565b92915050565b600061ffff82169050919050565b62000476816200045d565b81146200048257600080fd5b50565b60008151905062000496816200046b565b92915050565b600080600080600060a08688031215620004bb57620004ba62000234565b5b600086015167ffffffffffffffff811115620004dc57620004db62000239565b5b620004ea888289016200038a565b9550506020620004fd88828901620003e1565b9450506040620005108882890162000446565b9350506060620005238882890162000446565b9250506080620005368882890162000485565b9150509295509295909350565b600082825260208201905092915050565b7f746f6b656e3d3000000000000000000000000000000000000000000000000000600082015250565b60006200058c60078362000543565b9150620005998262000554565b602082019050919050565b60006020820190508181036000830152620005bf816200057d565b9050919050565b7f6f7261636c653d30000000000000000000000000000000000000000000000000600082015250565b6000620005fe60088362000543565b91506200060b82620005c6565b602082019050919050565b600060208201905081810360008301526200063181620005ef565b9050919050565b7f66656520746f6f20686967680000000000000000000000000000000000000000600082015250565b600062000670600c8362000543565b91506200067d8262000638565b602082019050919050565b60006020820190508181036000830152620006a38162000661565b9050919050565b600081519050919050565b7f4e487b7100000000000000000000000000000000000000000000000000000000600052602260045260246000fd5b60006002820490506001821680620006fd57607f821691505b602082108103620007135762000712620006b5565b5b50919050565b60008190508160005260206000209050919050565b60006020601f8301049050919050565b600082821b905092915050565b6000600883026200077d7fffffffffffffffffffffffffffffffffffffffffffffffffffffffffffffffff826200073e565b6200078986836200073e565b95508019841693508086168417925050509392505050565b6000819050919050565b6000620007cc620007c6620007c084620003bd565b620007a1565b620003bd565b9050919050565b6000819050919050565b620007e883620007ab565b62000800620007f782620007d3565b8484546200074b565b825550505050565b600090565b6200081762000808565b62000824818484620007dd565b505050565b5b818110156200084c57620008406000826200080d565b6001810190506200082a565b5050565b601f8211156200089b57620008658162000719565b62000870846200072e565b8101602085101562000880578190505b620008986200088f856200072e565b83018262000829565b50505b505050565b600082821c905092915050565b6000620008c060001984600802620008a0565b1980831691505092915050565b6000620008db8383620008ad565b9150826002028217905092915050565b620008f682620006aa565b67ffffffffffffffff81111562000912576200091162000259565b5b6200091e8254620006e4565b6200092b82828562000850565b600060209050601f8311600181146200096357600084156200094e578287015190505b6200095a8582620008cd565b865550620009ca565b601f198416620009738662000719565b60005b828110156200099d5784890151825560018201915060208501945060208101905062000976565b86831015620009bd5784890151620009b9601f891682620008ad565b8355505b6001600288020188555050505b505050505050565b6115f780620009e26000396000f3fe608060405234801561001057600080fd5b506004361061010b5760003560e01c806358c36e5c116100a25780637dc0d1d0116100715780637dc0d1d0146102925780638a4afb54146102b057806399304954146102ce578063e184c9be146102ec578063fc0c546a1461030a5761010b565b806358c36e5c146101fa5780635b883917146102165780636ef61092146102465780637adbf973146102765761010b565b806335abfeb7116100de57806335abfeb7146101965780633ccfd60b146101b45780633f6fa655146101be5780633fad9ae0146101dc5761010b565b8063061dd98d146101105780630bede3f81461012c5780630ffa9bed1461014857806324a9d85314610178575b600080fd5b61012a60048036038101906101259190610e8d565b610328565b005b61014660048036038101906101419190610ef2565b610336565b005b610162600480360381019061015d9190610f7d565b6104af565b60405161016f9190610fb9565b60405180910390f35b6101806104c7565b60405161018d9190610ff1565b60405180910390f35b61019e6104db565b6040516101ab919061101b565b60405180910390f35b6101bc6104ee565b005b6101c6610939565b6040516101d3919061101b565b60405180910390f35b6101e461094c565b6040516101f191906110c6565b60405180910390f35b610214600480360381019061020f9190610e8d565b6109da565b005b610230600480360381019061022b9190610f7d565b6109e8565b60405161023d9190610fb9565b60405180910390f35b610260600480360381019061025b9190610f7d565b610a00565b60405161026d919061101b565b60405180910390f35b610290600480360381019061028b9190610f7d565b610a20565b005b61029a610b5a565b6040516102a791906110f7565b60405180910390f35b6102b8610b80565b6040516102c59190610fb9565b60405180910390f35b6102d6610b86565b6040516102e39190610fb9565b60405180910390f35b6102f4610b8c565b6040516103019190610fb9565b60405180910390f35b610312610b92565b60405161031f9190611171565b60405180910390f35b610333600182610bb8565b50565b600360009054906101000a900473ffffffffffffffffffffffffffffffffffffffff1673ffffffffffffffffffffffffffffffffffffffff163373ffffffffffffffffffffffffffffffffffffffff16146103bd576040517f1bc2178f00000000000000000000000000000000000000000000000000000000815260040160405180910390fd5b600960009054906101000a900460ff1615610404576040517f6d5703c200000000000000000000000000000000000000000000000000000000815260040160405180910390fd5b600154421015610440576040517f671eb0c500000000000000000000000000000000000000000000000000000000815260040160405180910390fd5b6001600960006101000a81548160ff02191690831515021790555080600960016101000a81548160ff0219169083151502179055507f2dbe45053af8a5be28b770b827ff6b4c3892598264889de43ab1d82708397d51816040516104a4919061101b565b60405180910390a150565b60076020528060005260406000206000915090505481565b600360149054906101000a900461ffff1681565b600960019054906101000a900460ff1681565b600960009054906101000a900460ff16610534576040517f9f4a648900000000000000000000000000000000000000000000000000000000815260040160405180910390fd5b600860003373ffffffffffffffffffffffffffffffffffffffff1673ffffffffffffffffffffffffffffffffffffffff16815260200190815260200160002060009054906101000a900460ff16156105b8576040517f6507689f00000000000000000000000000000000000000000000000000000000815260040160405180910390fd5b6001600860003373ffffffffffffffffffffffffffffffffffffffff1673ffffffffffffffffffffffffffffffffffffffff16815260200190815260200160002060006101000a81548160ff0219169083151502179055506000600960019054906101000a900460ff1661066b57600760003373ffffffffffffffffffffffffffffffffffffffff1673ffffffffffffffffffffffffffffffffffffffff168152602001908152602001600020546106ac565b600660003373ffffffffffffffffffffffffffffffffffffffff1673ffffffffffffffffffffffffffffffffffffffff168152602001908152602001600020545b90506000810361070d573373ffffffffffffffffffffffffffffffffffffffff167ff279e6a1f5e320cca91135676d9cb6e44ca8a08c0b88342bcdb1144f6511b5686000806040516106ff9291906111c7565b60405180910390a250610937565b6000600960019054906101000a900460ff1661072b5760055461072f565b6004545b90506000600960019054906101000a900460ff1661074f57600454610753565b6005545b9050600083905060008211801561076a5750600083115b1561079a57600083838661077e919061121f565b6107889190611290565b9050808561079691906112c1565b9150505b60008482116107aa5760006107b7565b84826107b691906112f5565b5b90506000612710600360149054906101000a900461ffff1661ffff16836107de919061121f565b6107e89190611290565b9050600081846107f891906112f5565b90506000600260009054906101000a900473ffffffffffffffffffffffffffffffffffffffff1673ffffffffffffffffffffffffffffffffffffffff1663a9059cbb33846040518363ffffffff1660e01b8152600401610859929190611329565b6020604051808303816000875af1158015610878573d6000803e3d6000fd5b505050506040513d601f19601f8201168201806040525081019061089c9190611367565b9050806108de576040517f08c379a00000000000000000000000000000000000000000000000000000000081526004016108d5906113e0565b60405180910390fd5b3373ffffffffffffffffffffffffffffffffffffffff167ff279e6a1f5e320cca91135676d9cb6e44ca8a08c0b88342bcdb1144f6511b5688385604051610926929190611400565b60405180910390a250505050505050505b565b600960009054906101000a900460ff1681565b6000805461095990611458565b80601f016020809104026020016040519081016040528092919081815260200182805461098590611458565b80156109d25780601f106109a7576101008083540402835291602001916109d2565b820191906000526020600020905b8154815290600101906020018083116109b557829003601f168201915b505050505081565b6109e5600082610bb8565b50565b60066020528060005260406000206000915090505481565b60086020528060005260406000206000915054906101000a900460ff1681565b600360009054906101000a900473ffffffffffffffffffffffffffffffffffffffff1673ffffffffffffffffffffffffffffffffffffffff163373ffffffffffffffffffffffffffffffffffffffff1614610aa7576040517f1bc2178f00000000000000000000000000000000000000000000000000000000815260040160405180910390fd5b600073ffffffffffffffffffffffffffffffffffffffff168173ffffffffffffffffffffffffffffffffffffffff1603610b16576040517f08c379a0000000000000000000000000000000000000000000000000000000008152600401610b0d906114d5565b60405180910390fd5b80600360006101000a81548173ffffffffffffffffffffffffffffffffffffffff021916908373ffffffffffffffffffffffffffffffffffffffff16021790555050565b600360009054906101000a900473ffffffffffffffffffffffffffffffffffffffff1681565b60045481565b60055481565b60015481565b600260009054906101000a900473ffffffffffffffffffffffffffffffffffffffff1681565b60008103610bf2576040517f1f2a200500000000000000000000000000000000000000000000000000000000815260040160405180910390fd5b6001544210610c2d576040517fb2094b5900000000000000000000000000000000000000000000000000000000815260040160405180910390fd5b6000600260009054906101000a900473ffffffffffffffffffffffffffffffffffffffff1673ffffffffffffffffffffffffffffffffffffffff166323b872dd3330856040518463ffffffff1660e01b8152600401610c8e939291906114f5565b6020604051808303816000875af1158015610cad573d6000803e3d6000fd5b505050506040513d601f19601f82011682018060405250810190610cd19190611367565b905080610d13576040517f08c379a0000000000000000000000000000000000000000000000000000000008152600401610d0a90611578565b60405180910390fd5b8215610d8d5781600660003373ffffffffffffffffffffffffffffffffffffffff1673ffffffffffffffffffffffffffffffffffffffff1681526020019081526020016000206000828254610d6891906112c1565b925050819055508160046000828254610d8191906112c1565b92505081905550610dfd565b81600760003373ffffffffffffffffffffffffffffffffffffffff1673ffffffffffffffffffffffffffffffffffffffff1681526020019081526020016000206000828254610ddc91906112c1565b925050819055508160056000828254610df591906112c1565b925050819055505b3373ffffffffffffffffffffffffffffffffffffffff167f155158f24ddb17f97cfb5973dd837f4e86b8f8a56b3859bc77c52f20dc85d1158484604051610e45929190611598565b60405180910390a2505050565b600080fd5b6000819050919050565b610e6a81610e57565b8114610e7557600080fd5b50565b600081359050610e8781610e61565b92915050565b600060208284031215610ea357610ea2610e52565b5b6000610eb184828501610e78565b91505092915050565b60008115159050919050565b610ecf81610eba565b8114610eda57600080fd5b50565b600081359050610eec81610ec6565b92915050565b600060208284031215610f0857610f07610e52565b5b6000610f1684828501610edd565b91505092915050565b600073ffffffffffffffffffffffffffffffffffffffff82169050919050565b6000610f4a82610f1f565b9050919050565b610f5a81610f3f565b8114610f6557600080fd5b50565b600081359050610f7781610f51565b92915050565b600060208284031215610f9357610f92610e52565b5b6000610fa184828501610f68565b91505092915050565b610fb381610e57565b82525050565b6000602082019050610fce6000830184610faa565b92915050565b600061ffff82169050919050565b610feb81610fd4565b82525050565b60006020820190506110066000830184610fe2565b92915050565b61101581610eba565b82525050565b6000602082019050611030600083018461100c565b92915050565b600081519050919050565b600082825260208201905092915050565b60005b83811015611070578082015181840152602081019050611055565b60008484015250505050565b6000601f19601f8301169050919050565b600061109882611036565b6110a28185611041565b93506110b2818560208601611052565b6110bb8161107c565b840191505092915050565b600060208201905081810360008301526110e0818461108d565b905092915050565b6110f181610f3f565b82525050565b600060208201905061110c60008301846110e8565b92915050565b6000819050919050565b600061113761113261112d84610f1f565b611112565b610f1f565b9050919050565b60006111498261111c565b9050919050565b600061115b8261113e565b9050919050565b61116b81611150565b82525050565b60006020820190506111866000830184611162565b92915050565b6000819050919050565b60006111b16111ac6111a78461118c565b611112565b610e57565b9050919050565b6111c181611196565b82525050565b60006040820190506111dc60008301856111b8565b6111e960208301846111b8565b9392505050565b7f4e487b7100000000000000000000000000000000000000000000000000000000600052601160045260246000fd5b600061122a82610e57565b915061123583610e57565b925082820261124381610e57565b9150828204841483151761125a576112596111f0565b5b5092915050565b7f4e487b7100000000000000000000000000000000000000000000000000000000600052601260045260246000fd5b600061129b82610e57565b91506112a683610e57565b9250826112b6576112b5611261565b5b828204905092915050565b60006112cc82610e57565b91506112d783610e57565b92508282019050808211156112ef576112ee6111f0565b5b92915050565b600061130082610e57565b915061130b83610e57565b9250828203905081811115611323576113226111f0565b5b92915050565b600060408201905061133e60008301856110e8565b61134b6020830184610faa565b9392505050565b60008151905061136181610ec6565b92915050565b60006020828403121561137d5761137c610e52565b5b600061138b84828501611352565b91505092915050565b7f7472616e73666572206661696c65640000000000000000000000000000000000600082015250565b60006113ca600f83611041565b91506113d582611394565b602082019050919050565b600060208201905081810360008301526113f9816113bd565b9050919050565b60006040820190506114156000830185610faa565b6114226020830184610faa565b9392505050565b7f4e487b7100000000000000000000000000000000000000000000000000000000600052602260045260246000fd5b6000600282049050600182168061147057607f821691505b60208210810361148357611482611429565b5b50919050565b7f6f7261636c653d30000000000000000000000000000000000000000000000000600082015250565b60006114bf600883611041565b91506114ca82611489565b602082019050919050565b600060208201905081810360008301526114ee816114b2565b9050919050565b600060608201905061150a60008301866110e8565b61151760208301856110e8565b6115246040830184610faa565b949350505050565b7f7472616e7366657246726f6d206661696c656400000000000000000000000000600082015250565b6000611562601383611041565b915061156d8261152c565b602082019050919050565b6000602082019050818103600083015261159181611555565b9050919050565b60006040820190506115ad600083018561100c565b6115ba6020830184610faa565b939250505056fea26469706673582212206e25e99ab125907ee2f2e0296a64e936401f6267c5602b46730e47d6b4c998d064736f6c63430008140033",
  "linkReferences": {},
  "deployedLinkReferences": {}
}